:100000000C94F4000C9411010C9411010C94110146
:100010000C9411010C9411010C9411010C94110118
:100020000C9411010C9411010C9411010C94110108
:100030000C9411010C9411010C9411010C941101F8
:100040000C9411010C9411010C9411010C941101E8
:100050000C9411010C9411010C9411010C941101D8
:100060000C9411010C941101C7DB985914EAD00DBE
:100070007EF52EE5DB72C52103AFE9D98940F1D2C7
:10008000CE196FC74CB4D5930000000500000004E2
:10009000644AEDF1C8B8E61A606DD1B6664B360D0C
:1000A000CC9EEFD3E28587F5C66E474EC9CD886BEF
:1000B00088BD46FB8BF45F781E204CFC0B77FD3D22
:1000C00003AFE9D98940F1D21B476CE00B4587911A
:1000D0007EC4EE14A25E1AF6B53AB3396D6C281FD1
:1000E0005A7A84C716673342982F8A4291443771EF
:1000F000CFFBC0B5A5DBB5E95BC25639F111F159AB
:10010000A4823F92D55E1CAB98AA07D8015B8312EC
:10011000BE853124C37D0C55745DBE72FEB1DE8098
:10012000A706DC9B74F19BC1C1699BE48647BEEFC7
:10013000C69DC10FCCA10C246F2CE92DAA84744A52
:10014000DCA9B05CDA88F97652513E986DC631A8C8
:10015000C82703B0C77F59BFF30BE0C64791A7D5A7
:100160005163CA0667292914850AB72738211B2E2F
:10017000FC6D2C4D130D385354730A65BB0A6A7617
:100180002EC9C281852C7292A1E8BFA24B661AA823
:10019000708B4BC2A3516CC719E892D1240699D633
:1001A00085350EF470A06A1016C1A419086C371EAC
:1001B0004C774827B5BCB034B30C1C394AAAD84E8A
:1001C0004FCA9C5BF36F2E68EE828F746F63A578C5
:1001D0001478C8840802C78CFAFFBE90EB6C50A458
:1001E000F7A3F9BEF27871C611241FBECFEFD8E095
:1001F000DEBFCDBF12E0A0E0B1E0E8E0F6E402C06F
:1002000005900D92A430B107D9F723E0A4E0B2E045
:1002100001C01D92AB34B207E1F70E9478020C9442
:1002200002230C940000409184005091850020919D
:10023000C00027FF06C02091C600FC01208381E09A
:1002400008952091840030918500241B350B2231C4
:100250003A4768F380E00895AF92BF92CF92DF9261
:10026000EF92FF920F931F93CF93DF931F92CDB71F
:10027000DEB78C016B01CE0101960E941301882329
:1002800041F0E9808FEF8E0DE00EF12EF11C8034ED
:10029000C8F0F601108280E00F90DF91CF911F919E
:1002A0000F91FF90EF90DF90CF90BF90AF900895A7
:1002B00058018FEFA81AB80AC8010E9413018823B9
:1002C00041F385010E151F0599F78981F601808399
:1002D00081E0E2CFFC0141E18FEF9FEF415009F453
:1002E00008952191BC0172279B0158E0C901220F9A
:1002F000331F97FF04C071E2272770E13727515061
:10030000C901A1F7EBCFCF92DF92EF92FF920F934B
:100310001F93CF93DF93CDB7DEB762970FB6F894F4
:10032000DEBF0FBECDBF82E1E9E3F3E0DE0111964F
:1003300001900D928A95E1F7CD80DE80EF80F88400
:10034000D701C6010196A11DB11D8D839E83AF8388
:10035000B88780E59EE49A83898381E08B83CE0110
:1003600001960E946A019A8B898B01E00C0D017045
:1003700082E1089F800111240050104070E060E08D
:10038000C8010E94FC22B8016E5F7F4F40E150E03F
:10039000CE0103960E94DA2260E57EE4C8010E9445
:1003A000FC2282E1FE013196A9E3B3E001900D92B7
:1003B0008A95E1F762E170E0CE0101960E9459054D
:1003C00062960FB6F894DEBF0FBECDBFDF91CF911E
:1003D0001F910F91FF90EF90DF90CF900895CF93F2
:1003E000DF93EC010E946A019C018881998180352C
:1003F0009E4461F48A81813049F48B81823030F4EB
:1004000081E0488959894217530709F080E0DF915C
:10041000CF9108952D9A2FEF82E597E021508040EB
:100420009040E1F700C000002D982FEF82E597E0A3
:10043000215080409040E1F700C00000EBCF2091B8
:10044000C00025FFFCCF6093C600282FFC018E2F33
:10045000821B861708F0089581919091C00095FF46
:10046000FCCF8093C600F3CFCF92DF92EF92FF9242
:100470000F931F93CF93DF9300D000D000D0CDB760
:10048000DEB77B018A0190E080E041155105B1F0B3
:100490008EE4898381E58A8381E08B8389E08C8384
:1004A0001D834E8366E0CE0101960E941F020E0D51
:1004B0001F1D0E151F0589F481E090E026960FB6EA
:1004C000F894DEBF0FBECDBFDF91CF911F910F918A
:1004D000FF90EF90DF90CF90089567018FEFC81ADB
:1004E000D80AC7010E941301882339F37601E1CFAE
:1004F000CF93DF93CDB7DEB7CB54D1090FB6F894C5
:10050000DEBF0FBECDBF259A2D9882E08093C0003C
:100510001092C50010E11093C40088E18093C100DF
:1005200086E08093C2001092800085E08093810075
:1005300080E480937C0087E880937A005E0129E361
:10054000A20EB11C42E150E060E070E0C5010E94E3
:10055000CA22C5010E94EF01082F42E150E062E18A
:1005600070E0CE0101960E94CA22CE0101960E943F
:10057000EF01011149C0811162C0EBE3F3E0DF013B
:100580001D921A95E9F780E59EE490933A038093D3
:10059000390381E080933B0389E393E00E946A0181
:1005A00090934A038093490362E170E0C5010E9481
:1005B000590562E170E0CE0101960E9459053EE4C2
:1005C000832E41E5342E9924939458E3652E52E00E
:1005D000752E68E4462E62E0562E78E0272E1091A4
:1005E0003C03112381F18091410390914203A0913A
:1005F0004303B09144038F3F2FEF9207A207B20746
:1006000009F0FFC00E940A02882379F021964CADC0
:100610005DAD6EAD7FAD21978D819E81AF81B88537
:10062000481759076A077B0750F082E1FE01F996E7
:10063000A9E3B3E001900D928A95E1F7B5CF82E18D
:10064000FE013196F5CF2C961FAE2C971AAE19AE3F
:1006500080921C0230921D0290921E02B6E0B0936E
:100660001F0223E02093200265E08CE192E00E94CB
:100670001F02BE01655B7F4F8CE192E00E942C015E
:10068000811110C080921C0230921D0290921E02B5
:1006900020921F021092200265E08CE192E00E94FD
:1006A0001F029DCF2C968FAD2C97843359F78091E4
:1006B0001C028E3439F780911D02813519F7809123
:1006C0001E028130F9F680911F028730D9F68091A1
:1006D00020028135B9F680912102803599F680910A
:1006E0002202833479F680912302813359F6809176
:1006F0002402813039F680912502813019F68091EB
:100700002602813009F0BECF80912702823009F0A5
:10071000B9CFA8E2B2E0E8E7F0E08D9194918927A3
:10072000182B31966A167B06C1F71111ABCFA8E3DF
:10073000B2E0E8E6F0E08D9194918927182B31968C
:100740004A165B06C1F711119DCF88E492E00E9422
:100750007E0521E030E0C0904503D0904603E09054
:100760004703F0904803C616D706E806F90610F0CE
:1007700030E020E0232B09F485CFE8E8F0E0DE014B
:10078000119684918D933196AA16BB06D1F7650117
:10079000F12CE12C04E312E02CE035E040E350E0E2
:1007A00060E272E0CE0101960E94E71E8C0168E3D0
:1007B00070E0CE0101960E945905012B09F062CF2D
:1007C00089AD9AAD8C30954009F05CCF90923C0396
:1007D00088E492E00E947E0560934503709346038F
:1007E00080934703909348030E94830180921C02E8
:1007F00030921D0290921E0220921F0290922002BF
:100800004BCF0196A11DB11D8093410390934203EC
:10081000A0934303B09344030E9483012C961FAE20
:100820002C97E8ECF0E0DE011196CE018196249140
:100830002D933196A817B907D1F7E0ECF0E0D50178
:10084000C501089624912D933196A817B907D1F7C1
:1008500000914103109142032091430330914403DE
:10086000A501BE016F5F7F4F88E992E00E94A91841
:100870008C01892B81F460E388E992E00E941F02D9
:10088000BE01655B7F4F8CE592E00E942C018111D7
:10089000B0C009EF1FEF60E270E0CE0101960E9448
:1008A000590568E070E0C5010E94590560E370E0F9
:1008B00088E992E00E9459056CE370E08CE592E0D3
:1008C0000E945905012B09F09DCE9924939492E042
:1008D000892E80917C00807F80937C0080917A00BB
:1008E000806480937A0080917A0086FDFCCF8091AD
:1008F00078009091790019829092040290930502F9
:10090000809306024091410350914203609143035A
:100910007091440387E092E00E9478058E010F5F9A
:100920001F4F2CE132E047E064E072E088EC92E097
:100930000E94461C892B29F469818CE192E00E9477
:100940001F022C961FAE2C9719AEBE01655B7F4F20
:100950008CE192E00E942C01882309F440C08501BB
:1009600024E032E02C964FAD2C976CE172E088ECDD
:1009700092E00E94291D892B09F099C089AD82302F
:1009800009F095C080910402803109F090C08091F7
:100990000502823008F08BC0882309F486C02D9AA6
:1009A00081E01982809204028093050285B185FB63
:1009B000882780F9809306028E010F5F1F4F2CE17C
:1009C00032E043E064E072E088EC92E00E94461C72
:1009D000892B29F469818CE192E00E941F028FEF3C
:1009E00099E6A8E181509040A040E1F700C00000E6
:1009F00070CF2C968FAD2C978C3309F04ACF48E9F5
:100A000052E0BE016F5F7F4F8CE592E00E946C194F
:100A10008C01892B09F03FCF0CE512E028E932E088
:100A2000AE014F5F5F4F60E088EC92E00E94121AC7
:100A30008C01892B09F02FCF2CE5E22E22E0F22E3B
:100A400008E912E09E012F5F3F4F40E063E08CE138
:100A500092E00E94301B8C01892B09F01CCF68E1C9
:100A60008CE192E00E941F02BE01655B7F4F8CE12A
:100A700092E00E942C01882309F40BCF2C968FADB5
:100A80002C97883109F005CF8CE5E82E82E0F82E0E
:100A900008E912E09E012F5F3F4F40E064E08CE1E7
:100AA00092E00E94E91B8C01F6CE2D9879CF80E070
:100AB00078CF680F791F8617970709F40895FC010E
:100AC00010820196F8CFFB01480F591F20E08417D0
:100AD000950739F481E090E0222311F090E080E066
:100AE0000895DC013D91CD0161913627232BEFCF95
:100AF000FC0170836183528343830895FC0160810C
:100B00007181828193810E94622208952F923F9287
:100B10004F925F926F927F928F929F92AF92BF920D
:100B2000CF92DF92EF92FF920F931F93CF93DF93B9
:100B3000CDB7DEB7AD970FB6F894DEBF0FBECDBF11
:100B400099A788A71B01DC01CD90DD90ED90FC906A
:100B50001397CD82DE82EF82F8861496CD90DD90D9
:100B6000ED90FC901797CE86DF86E88AF98A189672
:100B7000CD90DD90ED90FC901B97CA86DB86EC86CD
:100B8000FD861C96CD90DD90ED90FC901F97CA8A53
:100B9000DB8AEC8AFD8A50964D905D906D907C903A
:100BA00053975496CD90DD90ED90FC905797C88E5A
:100BB000D98EEA8EFB8E5896CD90DD90ED90FC900C
:100BC0005B97CC8EDD8EEE8EFF8E5C968D919D9127
:100BD0000D90BC91A02D08EE10E019A308A322E00F
:100BE00030E03F8B2E8B1986E8A1F9A18590959076
:100BF000A590B490B301A20125E1440F551F661FD3
:100C0000771F2A95D1F7730162013BE0F694E794D0
:100C1000D794C7943A95D1F7C42AD52AE62AF72A59
:100C2000B301A201EAE1440F551F661F771FEA9541
:100C3000D1F793018201F6E0369527951795079530
:100C4000FA95D1F7402B512B622B732BC426D52656
:100C5000E626F726B301A20119E176956795579527
:100C600047951A95D1F793018201E7E0000F111F14
:100C7000221F331FEA95D1F7402B512B622B732B88
:100C80004C255D256E257F259301820100951095E9
:100C900020953095CC8CDD8CEE8CFF8C0C211D21A9
:100CA0002E213F21C88CD98CEA8CFB8CC420D52006
:100CB000E620F7200C251D252E253F25040F151FA6
:100CC000261F371F800E911EA21EB31EE985EF70EE
:100CD00004E0E09FF0011124E20DF31D0081118179
:100CE00022813381800E911EA21EB31E880D991D94
:100CF000AA1DBB1D0D811E812F813885F3E1000FD8
:100D0000111F221F331FFA95D1F7CD80DE80EF80AF
:100D1000F8844DE0F694E794D794C7944A95D1F7B8
:100D2000C02AD12AE22AF32A8D809E80AF80B8841F
:100D30005EE1880C991CAA1CBB1C5A95D1F74D8109
:100D40005E816F817885E2E0769567955795479546
:100D5000EA95D1F7842A952AA62AB72AC824D92445
:100D6000EA24FB248D809E80AF80B884F6E1B6949F
:100D7000A79497948794FA95D1F70D811E812F81BE
:100D800038854AE0000F111F221F331F4A95D1F703
:100D9000802A912AA22AB32A8C249D24AE24BF241F
:100DA0004A855B856C857D85CE84DF84E888F988FB
:100DB0004C255D256E257F25ED80FE800F811885F1
:100DC0004E215F21602371230A851B852C853D857B
:100DD000CE84DF84E888F9880C211D212E213F2153
:100DE0004027512762277327480D591D6A1D7B1D17
:100DF000EA88FB880C891D89E80EF91E0A1F1B1F53
:100E0000EA8AFB8A0C8B1D8B8C019D01040F151F38
:100E1000261F371F09831A832B833C8319851F5F85
:100E20001987103409F09AC0A8A5B9A54D915D9114
:100E30006D917C911397C980DA80EB80FC804C0D1A
:100E40005D1D6E1D7F1D4D935D936D937C93139778
:100E5000FD0184819581A681B781CD80DE80EF8000
:100E6000F8848C0D9D1DAE1DBF1D84839583A683C4
:100E7000B78380859185A285B385CE84DF84E88899
:100E8000F9888C0D9D1DAE1DBF1D80879187A2879F
:100E9000B38784859585A685B785CA84DB84EC8471
:100EA000FD848C0D9D1DAE1DBF1D84879587A68773
:100EB000B78780899189A289B389CA88DB88EC8841
:100EC000FD888C0D9D1DAE1DBF1D808B918BA28B4F
:100ED000B38B84899589A689B789840D951DA61D34
:100EE000B71D848B958BA68BB78B808D918DA28D32
:100EF000B38DC88CD98CEA8CFB8C8C0D9D1DAE1DDE
:100F0000BF1D808F918FA28FB38F848D958DA68DFD
:100F1000B78DCC8CDD8CEE8CFF8C8C0D9D1DAE1DA9
:100F2000BF1D848F958FA68FB78FAD960FB6F8949F
:100F3000DEBF0FBECDBFDF91CF911F910F91FF900C
:100F4000EF90DF90CF90BF90AF909F908F907F9069
:100F50006F905F904F903F902F90089589858F708C
:100F600034E0839FC0011124A101480F591F5BA3E6
:100F70004AA35985503108F4C8C0EE89FF89EF7043
:100F8000FF27EE0FFF1FEE0FFF1FE20DF31DC080C6
:100F9000D180E280F380EE89FF893D96EF70FF27D4
:100FA000EE0FFF1FEE0FFF1FE20DF31D00811181F9
:100FB00022813381EE89FF893896EF70FF27EE0F8B
:100FC000FF1FEE0FFF1FE20DF31D80809180A280B6
:100FD000B380EAA1FBA180819181A281B381AC01A0
:100FE000BD01480D591D6A1D7B1D4AA75BA76CA753
:100FF0007DA7B701A601A7E0769567955795479518
:10100000AA95D1F746015701B9E1880C991CAA1C91
:10101000BB1CBA95D1F7842A952AA62AB72AB7010C
:10102000A6018EE0440F551F661F771F8A95D1F7E2
:10103000D701C601072E72E1B695A79597958795BA
:101040007A95D1F7702D482B592B6A2B7B2B48258D
:1010500059256A257B2583E0F694E794D794C794B5
:101060008A95D1F74C255D256E257F258AA49BA402
:10107000ACA4BDA4840E951EA61EB71E68017901FE
:101080009FE0CC0CDD1CEE1CFF1C9A95D1F7D9011A
:10109000C80141E1B695A795979587954A95D1F7EF
:1010A0008C299D29AE29BF29B901A801032E3DE055
:1010B000440F551F661F771F3A95D1F7302D6801F1
:1010C00079010B2EB3E1F694E794D794C794BA95BF
:1010D000D1F7B02D4C295D296E297F294827592742
:1010E0006A277B278AE036952795179507958A9575
:1010F000D1F74027512762277327480D591D6A1DD4
:101100007B1D408351836283738308A119A10C5F07
:101110001F4F19A308A32E893F892F5F3F4F3F8B95
:101120002E8B8C8D9D8DAE8DBF8D488D598D6A8D8A
:101130007B8D4C8F5D8F6E8F7F8F488E598E6A8E20
:101140007B8E4A885B886C887D88CA84DB84EC84CB
:10115000FD84CA8ADB8AEC8AFD8AEE84FF840889D2
:101160001989EA86FB860C871D870D811E812F81D8
:1011700038850E871F87288B398B29813A814B81CF
:101180005C812D833E834F8358872ECDDC01A05C8C
:10119000BF4FFB0180E013969C91139790831296AA
:1011A0009C911297918311969C91119792839C9197
:1011B00093838F5F149634964813EDCF08959C0166
:1011C000FC01AC01405C5F4F619171918191919103
:1011D0000E946222DF0114976D937D938D939C93FF
:1011E0001397E417F50781F7B901CF010C94860531
:1011F0008F929F92AF92BF92CF92DF92EF92FF9227
:101200000F931F93CF93DF93EC01FC01E05AFF4F44
:1012100080809180A280B3807501640183E0CC0C52
:10122000DD1CEE1CFF1C8A95D1F79DE1B694A794B6
:10123000979487949A95D1F78E010C591F4FD80136
:10124000EC9181E08E0F8C93EC0FFD2FF11D90E857
:101250009083893318F5D801EC91E83348F118AE42
:1012600019AE1AAE8BAEFCAEEDAEDEAECFAECE0199
:10127000DF91CF911F910F91FF90EF90DF90CF9072
:10128000BF90AF909F908F900C94DF0881E08E0FFD
:10129000D8018C93EC0FFD2FF11D1082D801EC9139
:1012A000E034A0F3CE010E94DF08F8011082D3CF12
:1012B00081E08E0FD8018C93EC0FFD2FF11DF6CF3E
:1012C000FC01E05CFF4F47E656EE69E07AE64083BA
:1012D000518362837383349645E85EEA67E67BEB6D
:1012E0004083518362837383349642E753EF6EE603
:1012F0007CE3408351836283738334964AE355EFE2
:101300006FE475EA408351836283738334964FE7B9
:1013100052E56EE071E540835183628373833496B6
:101320004CE858E665E07BE9408351836283738330
:1013300034964BEA59ED63E87FE140835183628341
:101340007383349649E15DEC60EE7BE54083518325
:1013500062837383349610821182128213828C59B5
:101360009F4FFC0110820895FF920F931F93CF931C
:10137000DF93EC01F62E072F142F0E946009EF2D4A
:10138000F02FDE019F01205E3F4F819181278D93D9
:10139000E217F307D1F7612F70E040E250E0CE0191
:1013A00080960E94C322FE01E05AFF4F80E490E045
:1013B000A0E0B0E080839183A283B383CE01DF916C
:1013C000CF911F910F91FF900C94DF086F927F9245
:1013D0008F929F92AF92BF92CF92DF92EF92FF9245
:1013E0000F931F93CF93DF938C016B01EA017C0174
:1013F00084E6E80EF11C80E4682E5801E0E6AE0EAB
:10140000B11C209779F4DF91CF911F910F91FF903C
:10141000EF90DF90CF90BF90AF909F908F907F9094
:101420006F900895F7018081762C781A7C161D063E
:1014300011F008F07C2E872C912CA401B601800FAE
:10144000912F911D0E94BA22F7018081870D808320
:10145000F5014081518162817381470D511D611DEC
:10146000711D4083518362837383C80CD91CC819D2
:10147000D909803431F6C8010E94DF08F7011082D3
:10148000C0CF0F931F93CF93DF93EC018B010E948A
:10149000F80848E0B801CE01DF91CF911F910F917C
:1014A0000C94C608CF92DF92EF92FF920F931F9396
:1014B000CF93DF93CDB7DEB7C556D1090FB6F894F9
:1014C000DEBF0FBECDBF7C016B018A01CE0101964C
:1014D0000E946009A601B701CE0101960E94E609AB
:1014E000B801CE0101960E94410ACB59DF4F0FB6D9
:1014F000F894DEBF0FBECDBFDF91CF911F910F914A
:10150000FF90EF90DF90CF900895AF92BF92CF926F
:10151000DF92EF92FF920F931F93CF93DF93CDB79C
:10152000DEB7C556D1090FB6F894DEBF0FBECDBFEA
:101530007C016B015A01890146E3BC01CE01019691
:101540000E94B409A501B601CE0101960E94E609E8
:10155000B801CE0101960E94410A4CE5B701CE01C7
:1015600001960E94B40940E250E0B801CE01019614
:101570000E94E609B801CE0101960E94410ACB59AA
:10158000DF4F0FB6F894DEBF0FBECDBFDF91CF9116
:101590001F910F91FF90EF90DF90CF90BF90AF9091
:1015A0000895FB01480F591F20E08417950739F46F
:1015B00081E090E0222311F090E080E00895DC01CA
:1015C0003D91CD0161913627232BEFCF9F92AF92B2
:1015D000BF92CF92DF92EF92FF920F931F93CF9320
:1015E000DF93FC016C01C60ED71EB12CA12C912CEF
:1015F000E12CF12C10E0D0E0C0E0B0E0A0E0EC1570
:10160000FD05A1F4292D3E2D4F2D512F6D2F7C2F3F
:101610008B2F9A2FDF91CF911F910F91FF90EF9019
:10162000DF90CF90BF90AF909F900895219130E0D0
:1016300040E050E060E070E080E090E00A2D0E9421
:101640006922922AE32AF42A152BD62BC72BB82B12
:10165000A92B88E0A80EB11CD2CF2F923F924F92B7
:101660005F926F927F928F929F92AF92BF92CF9232
:10167000DF92EF92FF920F931F93CF93DF93CDB73B
:10168000DEB7AE970FB6F894DEBF0FBECDBFFC013C
:1016900020A131A142A153A1A4A175A186A197A126
:1016A000B081B227BE8FB181B327BF8FB281B4277B
:1016B000B8A3B381B527B9A3B481BA27BAA3B581BA
:1016C000B727BBA3B681B827BCA3B781B927BDA3F1
:1016D000208CA18CAE86028D0983138D1A83B48D64
:1016E000BB83A58CAC82068D0D83178D1E832225AE
:1016F000BE85B327BEA3A9804A250A8150271B8136
:101700001A271FA33C817327AD818A27BE819B279F
:10171000A084AF8601851285188B3385398BA4850B
:10172000AA8BB585BB8BA684AC8A17851D8BA08937
:101730003F85A327318830264288B8894B265388B5
:10174000A9885A2464881A89612675883B8973267A
:101750008688BC898B269788AD889A246A27FF845F
:10176000F094102F109538893095A989A095AA88F2
:10177000A094BB88B094CB2EC094DD88D094F62280
:10178000132134213887A521AF83A620B720C82094
:10179000D920BE8DFB263F8D1327A885B8A1AB2786
:1017A000AEA73F81A9A13A273DA7BAA1BA25B8A7FC
:1017B000ABA0AB24A9A63CA13C253AA7ADA1AD2581
:1017C000ABA7A22CA094BE85B095BF83B980B0947E
:1017D000CA80C094DB80D094BC81B0953D813095A7
:1017E0003987EE80E094A222AF813EA1A323A8878F
:1017F000B422C522AFA1DA22B723A985A823E92202
:10180000A626AF82A884A324A886B424B986C524BA
:10181000CA86D624DB86B725BC87A825AD87E924F0
:10182000ECA6AE8CA0943F8D30953E8BB8A0B094C2
:10183000C9A0C094DAA0D094EBA0E094BCA1B0956C
:10184000ADA1A0953F85A3223E8930233F8B3889E7
:10185000B3223989C3223A89D3223B89E3223C89C6
:10186000B3233D89A323A226AE8AAEA03F89A32637
:10187000AF8AB426B88EC526C98EAFA0AD24AA8E75
:10188000E726EB8EB827BC8FA927AD8FA62FA09592
:10189000B32DB0954094509460947094809490943B
:1018A000A2213E85B32369814622AA805A203B812A
:1018B00063226C817622AD808A203E819322AF25FF
:1018C000B1276EA54626ADA45A2438A5632669A57E
:1018D0007626AAA48A243BA593266F85A627B0273F
:1018E000A8884A24098950263A8963266B89762676
:1018F000AC888A240D899026AE88FA24AF881A25F0
:10190000AEA4AB24AEA6ADA4AC24ADA6A8A40A8D0B
:10191000A026B9A4BE24CAA43C8DC326DBA46D8D29
:10192000D62620953EA13095409550956FA16095A3
:101930007095809590950E8D20230F8D302308A1F2
:10194000402309A150230AA160230BA170230CA1FD
:1019500080230DA190230F8120270885302709853A
:1019600040270A8550270B8560270C8570270D8539
:1019700080270CA5902722263E8433262981242700
:1019800029833A8135273A830B8106270B832C81E3
:1019900027272C833D8138273D836E8169276E83FD
:1019A0008F8180958F8308850095088729852095EC
:1019B00029873A8530953A876B8560956B878C854A
:1019C00080958C870D8500950D87ECA4E0942F2DD4
:1019D000312F4EA55DA5B501C6010DE20E949F22E3
:1019E0002E873F87488B598B6A8B7B8B8C8B9D8B8B
:1019F0002F2D312F4EA55DA5B501C60104E20E9431
:101A00009F220E8520270F853027088940270989C6
:101A100050270A8960270B8970270C8980270D8938
:101A200090272F2531271EA541271DA551276A255F
:101A30007B258C25D926208331834283538364837D
:101A400075838683D7829D01A201B301C40103E09F
:101A50000E949F2259016A01F62E172F8F879E87B9
:101A60009D01A201B301C40109E10E949F222A2520
:101A70003B254C255D256F257127AF848A251E8562
:101A800091272A273B274425552566257725882534
:101A90009925208731874287538764877587868792
:101AA00097872F81388549855A856B857C858D85FB
:101AB0009E2D0FE30E949F226901F42E152F6F8740
:101AC0007E87B82FA92F2F81388549855A856B8548
:101AD0007C858D859E2D0AE30E949F222C253D2525
:101AE0004F255127AF846A251E8571278B279A279A
:101AF000AF812A27B8853B27A9844A251A85512713
:101B0000AB856A27BC857B27AD848A25E926208B97
:101B1000318B428B538B648B758B868BE78A91015B
:101B200049815A816B817C818D819E8106E30E946F
:101B30009F22D22EE32EF42E152F68877F83B82F95
:101B4000A92F910149815A816B817C818D819E8170
:101B50000FE20E949F222D253E254F2551271885F3
:101B60006127AF807A258B279A2722253325198173
:101B70004127AA815A27BB816B27AC807A251D811A
:101B80008127AE819A27208F318F428F538F648FA8
:101B9000758F868F978F2E893F89488D598D6A8DD5
:101BA0007B8D8C8D9D8D09E30E949F22A22E39830F
:101BB000B42EC52ED62EE72EB82FA92F2E893F89F9
:101BC000488D598D6A8D7B8D8C8D9D8D07E10E948E
:101BD0009F222A25A9803A25B426C526D626E7269F
:101BE000B827A9271E892127AF883A25188DB12645
:101BF000A98CCA241A8DD126AB8CEA241C8DB1275E
:101C0000AD8CAA2520A331A3B2A2C3A2D4A2E5A27F
:101C1000B6A3A7A3AE960FB6F894DEBF0FBECDBF96
:101C2000DF91CF911F910F91FF90EF90DF90CF90B8
:101C3000BF90AF909F908F907F906F905F904F90EC
:101C40003F902F9008950F931F93CF93DF938C01B4
:101C5000C0EFD0E06D2F6C2BC8010E942D0BDF5F11
:101C6000C051C033B9F7DF91CF911F910F91089503
:101C70000F931F93CF93DF938C01D0EBC4E06C2FB5
:101C80006D2BC8010E942D0BCF5FD051CC30B9F71E
:101C9000DF91CF911F910F9108952F923F924F9214
:101CA0005F926F927F928F929F92AF92BF92CF92EC
:101CB000DF92EF92FF920F931F93CF93DF9300D0A9
:101CC00000D0CDB7DEB79C838B838B015A0168E0CF
:101CD00070E0C8010E94E60A29013A014B016C013B
:101CE00068E070E0C80108960E94E60A19017A01CE
:101CF0008B0189839A8381E0EB81FC81808311824F
:101D00008CE8828380E88383148280E18583168255
:101D10001782408651866286738684869586C6863B
:101D2000D786208A318AE28AF38A048B158B29812F
:101D3000268B978B68E070E0C5010E94E60AEB8174
:101D4000FC81208F318F428F538F648F758F868FE8
:101D5000978F68E070E0C50108960E94E60AEB8163
:101D6000FC8120A331A342A353A364A375A386A33C
:101D700097A3CF010E94230EEB81FC81808D482622
:101D8000818D5826828D6826838D7826848D8826BD
:101D9000858D9826868DC826878DD826408E518EB3
:101DA000628E738E848E958EC68ED78E80A12826E5
:101DB00081A1382682A1E82683A1F82684A10827DC
:101DC00085A1182796A1F9819F27EB81FC8187A126
:101DD000FA818F27EB81FC8120A231A2E2A2F3A23B
:101DE00004A315A396A387A30F900F900F900F90B5
:101DF000DF91CF911F910F91FF90EF90DF90CF90E7
:101E0000BF90AF909F908F907F906F905F904F901A
:101E10003F902F9008952F923F924F925F926F9232
:101E20007F928F929F92AF92BF92CF92DF92EF926A
:101E3000FF920F931F93CF93DF93EC014B017A0135
:101E40005A018B01452B09F051C08FA180588FA3F7
:101E5000DF91CF911F910F91FF90EF90DF90CF9086
:101E6000BF90AF909F908F907F906F905F904F90BA
:101E70003F902F90089568E070E0C8010E94E60A44
:101E8000262537254C255D25652547268325922562
:101E9000288339834A835B836C834D828E839F833F
:101EA00068E070E0C80108960E94E60AE8852E27DF
:101EB000E9853E27EA854E27EB855E27EC856E2770
:101EC000ED857E27EE858E27EF859E27288739872B
:101ED0004A875B876C877D878E879F87CE010E94AC
:101EE000380E005F1F4F80E1A81AB1086880798022
:101EF000CA80DB805C804D803E802F8080E1A81608
:101F0000B10408F0B8CF970144E0369527954A957B
:101F1000E1F7890154E0000F111F5A95E1F7080D10
:101F2000191D40EF4203C001439F900D1124E80E9C
:101F3000F91E88E0E816F10408F459C068E070E082
:101F4000C8010E94E60A262537254C255D25652512
:101F5000472683259225288339834A835B836C83B4
:101F60004D828E839F83B70168507109C80108961E
:101F70000E94E60A49015A016B01182FB92F88E027
:101F8000E81A80EEF80A93E0EE0CFF1C9A95E1F750
:101F900021E030E040E050E060E070E080E090E080
:101FA0000E2D0E946922E8852E27E9853E27EA85C5
:101FB0004E27EB855E27AC856A27AD857A27FE859F
:101FC0008F27EF859E27282539254A255B256C25F7
:101FD0007D2581279B27288739874A875B876C87E0
:101FE0007D878E879F87CE010E94380E2ECFB70146
:101FF000C8010E94E60A5901142FB52FA62FF72F0A
:10200000E82F992E83E0EE0CFF1C8A95E1F721E082
:1020100030E040E050E060E070E080E090E00E2DC5
:102020000E946922262537254C255D2565254726F2
:10203000832592252A253B2541275B276A274F26A2
:102040008E279926288339834A835B836C834D824C
:102050008E839F82C8CF2F923F924F925F926F9252
:102060007F928F929F92AF92BF92CF92DF92EF9228
:10207000FF920F931F93CF93DF9300D000D0CDB783
:10208000DEB79C838B838B017A0168E070E0C80126
:102090000E94E60A29013A014B015C0168E070E008
:1020A000C80108960E94E60A322EC32ED42E252E91
:1020B00069837A838C01AB81BC8150967C91509767
:1020C000742551966C915197652552965C91529763
:1020D000562553964C915397472554963C915497C7
:1020E000382555962C915597292556969C915697AB
:1020F0009A2557968C9157978B2550967C9350979D
:1021000051966C93519752965C93529753964C9379
:10211000539754963C93549755962C9355975696AF
:102120009C93569757968C93579758967C915897AF
:10213000732559966C9159976C255A965C915A97CC
:102140005D255B964C915B9742255C963C91B981ED
:102150003B27EB81FC81258DFA812F27AB81BC8148
:102160005E969C915E9790275F968C915F978127F2
:1021700058967C93589759966C9359975A965C93B6
:102180005A975B964C935B975C963C935C975D96F5
:102190002C935D975E969C935E975F968C935F976A
:1021A000CD010E94230EEB81FC81808D4826818D1C
:1021B0005826828D6826838D7826A48D8A26858D63
:1021C0009826868DA826878DB826408E518E628EE1
:1021D000738E848E958EA68EB78E80A1382681A1AF
:1021E000C82682A1D82683A1282624A1F9812F27D9
:1021F000AB81BC8195969C91BA819B27EB81FC8138
:1022000086A1082787A1182730A2C1A2D2A223A2A3
:1022100024A395A306A317A36701F0E0E0E09201D1
:10222000A301B401C5010E2F0E948422D6012D9373
:102230006D013896E034F10591F7EB81FC8180A0C7
:1022400091A0A2A0B3A0C4A0D5A016A1F7A1F98324
:10225000D7011896F0E0E0E09401A501B601812FC6
:1022600099810E2F0E9484222D933896E034F10537
:1022700099F70F900F900F900F90DF91CF911F91D2
:102280000F91FF90EF90DF90CF90BF90AF909F9015
:102290008F907F906F905F904F903F902F90089518
:1022A0002F923F924F925F926F927F928F929F9266
:1022B000AF92BF92CF92DF92EF92FF920F931F9354
:1022C000CF93DF93CDB7DEB7ED970FB6F894DEBFAF
:1022D0000FBECDBF9AAB89AB79AF68AF5CAB4BABF0
:1022E000DEAACDAAB8AAAFA6A9016BA97CA9CE0186
:1022F00001966C010E944D0EA701B801C6010E9413
:102300000B0FAFA4B8A8BEA6ADA6ADA9BEA9BCA729
:10231000ABA7E9A9FAA9FAA7E9A7CAAEDBAE49803B
:102320003A802B80EC805D80FE808F809884ADA504
:10233000BEA5509708F0C9C02FA538A944E036952E
:1023400027954A95E1F7890154E0000F111F5A952E
:10235000E1F7C9A8DAA8C00ED11EEDA9FEA90E0F9B
:102360001F1F40EF42035001439FB00C11248FA563
:1023700098A9A80EB91E98E0A916B10408F433C1B3
:1023800068E070E0C8010E94E60A4226332624264F
:102390005E255BA765256DA77F257FA788269926E3
:1023A00049823A822B825C836D837E838F829886FA
:1023B000B50168507109C80108960E94E60A69844F
:1023C00062267A8473261B851427BC85B527B9AB92
:1023D000AD85A627ADAB5E845726FF85F827E88933
:1023E000E927DAA6C9A6F12CE12C242D332D422DA4
:1023F0005BA56DA57FA5C4010E2D0E948422A9A511
:10240000BAA52D93BAA7A9A7B8E0EB0EF11C80E4FA
:10241000E816F10451F7760198E0E90EF11C460147
:102420008A0C9B1CD12CC12C8E149F0409F0CAC0AD
:1024300088E0A81A80EEB80A93E0AA0CBB1C9A9513
:10244000E1F721E030E040E050E060E070E080E063
:1024500090E00A2D0E946922262537254127A9A947
:102460005A27BDA96B2757268F279E2729873A878A
:102470004B875C876D875E868F87988B48AD59AD9B
:102480006BA97CA9CE0101960E942B1068E270E036
:10249000CE0101960E945905ED960FB6F894DEBF65
:1024A0000FBECDBFDF91CF911F910F91FF90EF90A5
:1024B000DF90CF90BF90AF909F908F907F906F9064
:1024C0005F904F903F902F90089568E070E08BA54B
:1024D0009CA50E94E60A422633262426152F1E2597
:1024E00056267F257FAB8826992649823A822B8201
:1024F0001C835D827E838F82988668E070E08BA566
:102500009CA508960E94E60A698462267A8473264E
:10251000AB84A426BC84B526ED84E626FE84F7268B
:10252000BF85B827A889A92769867A86AB86BC8625
:10253000ED86FE86BF87A88BC9A4DAA41DAE1CAEAB
:10254000242D332D422D512F652D7FA9C4010CADB3
:102550000E948422F60121936F01ECADFDAD389607
:10256000FDAFECAFE034F10559F7C9A4DAA4F8E007
:10257000CF0ED11C912C812C9301A501B7018B2F7B
:102580009A2F082D0E948422F60121936F01F8E012
:102590008F0E911C80E48816910471F78AAD9BAD73
:1025A0000E94380EABA5BCA55096BCA7ABA7E9A569
:1025B000FAA57096FAA7E9A78DA59EA540979EA7B4
:1025C0008DA7ADCE9301412F59A96DA9752D8F2FE0
:1025D0009E2F0C2D0E948422D7012D937D01B8E0FF
:1025E000CB0ED11C21CFB501C8010E94E60A4226BC
:1025F00033262426152F1E255626F72688269926AB
:10260000F601CA0CDB1CB0E0A0E0EC15FD0509F5F5
:1026100083E0AA0CBB1C8A95E1F721E030E040E0A2
:1026200050E060E070E080E090E00A2D0E946922B6
:1026300042263326242615275626F726882699264D
:1026400049823A822B821C835D82FE828F82988629
:1026500015CF242D332D422D512F652D7F2DC401F3
:102660000A2F0E94842221931896CFCF2F923F9257
:102670004F925F926F927F928F929F92AF92BF9292
:10268000CF92DF92EF92FF920F931F93CF93DF933E
:10269000CDB7DEB7C955D1090FB6F894DEBF0FBE6E
:1026A000CDBF62969FAF8EAF629766967FAF6EAFDB
:1026B00066974901FCAEEBAE2F96DFAECEAE2F97FC
:1026C0006896BFAEAEAE6897CE0101967C010E94BF
:1026D0004D0EA801B401C7010E940B0F2F96CEAC7E
:1026E000DFAC2F97DAAEC9AECBACDCAC62968EAC69
:1026F0009FAC62976396EFAE63976496FFAE649764
:1027000079805A802B803C806D804E80AF80B88469
:1027100089AD9AAD409708F07FC12F962EAD3FADA1
:102720002F9744E0369527954A95E1F7890154E0C3
:10273000000F111F5A95E1F76296EEACFFAC62975D
:10274000E00EF11EABADBCAD0A0F1B1F40EF420304
:102750004001439F900C11242F968EAD9FAD2F9773
:10276000880E991E98E08916910408F485C268E0E5
:1027700070E0C8010E94E60A2BAF3DAF4EAF219634
:102780005FAF219722966FAF229723967FAF239753
:1027900024968FAF249725969FAF2597D40118973D
:1027A000BAAFA9AFBD01C80108960E94E60A2696F5
:1027B0002FAF269727963FAF279728964FAF28979A
:1027C00029965FAF29972A966FAF2A972B967FAFEE
:1027D0002B972C968FAF2C972D969FAF2D97BBAD37
:1027E000B7250DAD50268EAD282621969FAD219799
:1027F00039262296AFAD2297A62523960FAD2397B3
:10280000402624968FAD2497A82625969FAD259720
:10281000B926F701712C612C2B2F352DA1016A2FC0
:10282000742DC501062D0E948422219308E0600EBC
:10283000711C80E46816710479F7C984DA842B84EA
:102840003C844D845E846F84788826961FAD2697DD
:102850001C252796BFAC2797BD242896AFAC289798
:10286000A2242996AFAD2997A3256096AFAF6097B4
:102870002A96BFAD2A97B4256396BFAF63972B9670
:10288000AFAD2B97A5256496AFAF64972C96BFADDF
:102890002C97B6256996BFAF69972D96AFAD2D974A
:1028A000A7256A96AFAF6A97F7013896E80CF91C2E
:1028B000B0E0A0E0EE16FF0609F0A4C1BBADB983FD
:1028C0000DAD0A838EAD8B8321969FAD21979C839E
:1028D0002296AFAD2297AD832396BFAD2397BE83DB
:1028E00024960FAD24970F8325968FAD2597888763
:1028F000F0E0E0E0A9ADBAADEA17FB0708F49AC131
:1029000084010850104E93E0000F111F9A95E1F7D3
:1029100021E030E040E050E060E070E080E090E0F6
:102920000E9469222696EFAD2697EC292796FFADE7
:102930002797FD292896AFAD2897A2292996BFADE4
:102940002997B3292A960FAD2A9704292B96EFAC25
:102950002B97E5282C96FFAC2C97F6282D961FADCB
:102960002D9717292E273F274A275B2760277E258B
:102970008F25912729873A874B875C876D877E87CC
:102980008F87988BAE01475D5F4F66966EAD7FADCA
:102990006697CE0101960E942B1040E150E06896A8
:1029A0006EAD7FAD6897CE0189960E946305892B35
:1029B00009F01EC22F966EAD7FAD2F9762968EAD39
:1029C0009FAD62970E94590560E170E0CE01899643
:1029D0000E94590568E270E0CE0101960E945905F7
:1029E0008DEF9FEFC75ADF4F0FB6F894DEBF0FBED3
:1029F000CDBFDF91CF911F910F91FF90EF90DF90AE
:102A0000CF90BF90AF909F908F907F906F905F908E
:102A10004F903F902F90089568E070E0C6010E94AB
:102A2000E60A2DAF3EAF21964FAF219722965FAFBA
:102A3000229723966FAF239724967FAF24972596EE
:102A40008FAF259726969FAF269768E070E0C60166
:102A500008960E94E60A27962FAF279728963FAF41
:102A6000289729964FAF29972A965FAF2A972B96DA
:102A70006FAF2B972C967FAF2C972D968FAF2D97FE
:102A800060969FAF60979DAD7926AEAD5A26219690
:102A9000BFAD21972B2622960FAD22973026239685
:102AA0008FAD2397682624969FAD249749262596B7
:102AB000AFAD2597AA262696BFAD2697BB26D40193
:102AC000F12CE12C272D352DA101662D742DC5018A
:102AD0000E2D0E9484222D9308E0E00EF11C80E46C
:102AE000E816F10479F729842796AFAD27972A26AF
:102AF0003A842896BFAD28973B264B842996AFADE4
:102B000029974A26EC842A96BFAD2A97EB26FD84A6
:102B10002B96AFAD2B97FA261E852C96BFAD2C9722
:102B20001B27BF852D967FAC2D977B26A8896096A5
:102B30006FAC60976A26540108E0A00EB11CF0E06B
:102B4000E0E09101442D5E2D6F2D712F872D962D84
:102B50000E2F0E948422D5012D935D013896E0341A
:102B6000F10579F7BDADB9830EAD0A8321968FAD1E
:102B700021978B8322969FAD22979C832396AFAD9E
:102B80002397AD832496BFAD2497BE8325960FADC2
:102B900025970F8326968FAD269788872796AFAD0A
:102BA0002797A9872896BFAD2897BA872996AFADF2
:102BB0002997AB872A96BFAD2A97BC872B96AFADD6
:102BC0002B97AD872C96BFAD2C97BE872D96AFADBA
:102BD0002D97AF876096BFAD6097B88B63968FAD2A
:102BE000639764969FAD64970E94380E00E1800E53
:102BF000911C80E1C80ED11CA9ADBAAD5097BAAFF7
:102C0000A9AF7ECD212F3B2D4A2D60965FAD6097F9
:102C100063966FAD639764967FAD649769968FAD49
:102C200069976A969FAD6A970A2F0E948422219322
:102C3000189640CE8F0123E0000F111F2A95E1F76F
:102C40002FEF30E040E050E060E070E080E090E0A6
:102C50000E94692220953095409550956095709519
:102C600080959095C222D3222422352246225722D3
:102C70006822792231963ECEB401C8010E94E60A4C
:102C8000E22F132F29964FAF29972A965FAF2A97E5
:102C9000F62F79AF8BAF9DAFB22FB7252196BFAF7F
:102CA0002197A32FA5252296AFAF2297B42FB22547
:102CB0002396BFAF2397A52FA3252496AFAF2497C4
:102CC000B62FB6252596BFAF2597A72FA425269604
:102CD000AFAF26978A2527968FAF27979B252896F3
:102CE0009FAF2897D701A80DB91DBFAFAEAFD12CAC
:102CF000C12CAEADBFADEA16FB06C9F5F12CE12C37
:102D0000670183E0CC0CDD1C8A95E1F7E814F90437
:102D100009F04FC021E030E040E050E060E070E0BA
:102D200080E090E00C2D0E946922E7291529299660
:102D3000BFAD2997B2292A96AFAD2A97A329F629C4
:102D400009AD402A0BADA02A0DADB02AE22713270A
:102D5000B427A527F6277425A826B926E9831A8360
:102D6000BB83AC83FD837E83AF82B8860BCE219676
:102D70002FAD219722963FAD229723964FAD2397F3
:102D800024965FAD249725966FAD259726967FAD47
:102D9000269727968FAD279728969FAD28970C2DBD
:102DA0000E948422D7012D937D01B8E0CB0ED11C67
:102DB000A0CF2FEF30E040E050E060E070E080E036
:102DC00090E00C2D0E9469222095309540955095F9
:102DD0006095709580959095722253222422352219
:102DE00066224722A822B922BFEFEB1AFB0A88CF3E
:102DF00060E170E0CE0189960E94590568E270E0BA
:102E0000CE0101960E94590590E080E0EBCDFC01D7
:102E100080818E3469F48181813551F482818130E1
:102E200039F421E090E08381861320E0822F089519
:102E300080E090E008950F931F93CF93DF9300D02D
:102E400000D0CDB7DEB78C01FB01BA01A90180E14A
:102E5000D80101900D928A95E1F7CE0101960E946A
:102E60007805F801DE01119698012C5F3F4F9D9186
:102E70008485892784873196E217F307C1F764E0D8
:102E800070E0CE0101960E9459050F900F900F90AF
:102E90000F90DF91CF911F910F9108958F929F9284
:102EA000AF92BF92CF92DF92EF92FF920F931F9358
:102EB000CF93DF93CDB7DEB7C955D1090FB6F894DC
:102EC000DEBF0FBECDBFFA01DA010D900020E9F799
:102ED00011975D01A41AB50A49E1A416B10408F0DE
:102EE00045C049017B016C01A501BF01CE010196DE
:102EF0000E94BA22E1E0F0E0EC0FFD1FEA0DFB1D9D
:102F0000108210E0C5010196A801B40121E030E073
:102F10002C0F3D1F820F931F0E94BA22A8014F5F02
:102F20005F4F4A0D5B1D9601BE016F5F7F4FC7016A
:102F30000E94850A69E570E0CE0101960E9459055C
:102F400090E080E0C75ADF4F0FB6F894DEBF0FBEA7
:102F5000CDBFDF91CF911F910F91FF90EF90DF9048
:102F6000CF90BF90AF909F908F9008958AEF9FEF82
:102F7000E9CFAF92BF92CF92DF92EF92FF920F9381
:102F80001F93CF93DF93CDB7DEB7A4970FB6F89416
:102F9000DEBF0FBECDBF7C0159016801CE01819615
:102FA0000E94780504E09E012F5D3F4F40E051E014
:102FB000B701CE0101960E944E1780E1FE013196C5
:102FC000D50101900D928A95E1F79E012F5D3F4F4B
:102FD00042E151E0B701C6010E944E1764E070E083
:102FE000CE0181960E94590560E270E0CE01019603
:102FF0000E945905A4960FB6F894DEBF0FBECDBF50
:10300000DF91CF911F910F91FF90EF90DF90CF90C4
:10301000BF90AF900895AF92BF92CF92DF92EF92A0
:10302000FF920F931F93CF93DF93CDB7DEB7EA974D
:103030000FB6F894DEBF0FBECDBFFA01019000209D
:10304000E9F731978F01041B150B0931110508F0C1
:1030500047C059019A017B016C01A801B901CE0159
:1030600001960E94BA22E1E0F0E0EC0FFD1FE00FB4
:10307000F11F1082D801119681E090E08C0F9D1F06
:10308000A80FB91F80E2F50101900D928A95E1F732
:10309000FE01E00FF11F81E082A3A8014E5D5F4FAA
:1030A0009601BE016F5F7F4FC7010E94850A6AE3E8
:1030B00070E0CE0101960E94590590E080E0EA960A
:1030C0000FB6F894DEBF0FBECDBFDF91CF911F9139
:1030D0000F91FF90EF90DF90CF90BF90AF90089549
:1030E0008AEF9FEFECCFEF92FF920F931F93CF9356
:1030F000DF93CDB7DEB7A0970FB6F894DEBF0FBE53
:10310000CDBF7C01CE0101960E944E178C01892B08
:1031100061F440E150E0BE016F5F7F4FC7010E9444
:103120006305892B11F40DEF1FEF60E270E0CE0113
:1031300001960E945905C801A0960FB6F894DEBF0B
:103140000FBECDBFDF91CF911F910F91FF90EF90F8
:1031500008958F929F92AF92BF92CF92DF92EF929B
:10316000FF920F931F93CF93DF93CDB7DEB7AC974A
:103170000FB6F894DEBF0FBECDBF009709F47EC036
:103180006115710509F47AC04115510509F476C03D
:10319000011511052105310509F470C048015901D7
:1031A0008A016B017C018EE4F701808381E58183D4
:1031B00081E082838383D701149688E0FA0101902D
:1031C0000D928A95E1F7B901A401C7010C960E94FE
:1031D000780588E0F801DE01919601900D928A95BC
:1031E000E1F7B501A401CE0189960E9478050CE0B3
:1031F0009E012F5D3F4F43E251E0B601CE010196A3
:103200000E944E17D701509680E1FE013196019041
:103210000D928A95E1F700E2970146E351E0B6018D
:10322000CE0101960E944E17D701909680E1FE01D3
:10323000319601900D928A95E1F760E270E0CE013F
:1032400001960E9459056CE070E0CE0181960E94C3
:10325000590590E080E0AC960FB6F894DEBF0FBE43
:10326000CDBFDF91CF911F910F91FF90EF90DF9035
:10327000CF90BF90AF909F908F9008958FEF9FEF6A
:10328000EACFEF92FF920F93CF93DF93009741F431
:103290008EEF9FEFDF91CF910F91FF90EF90089508
:1032A00061157105A9F37B01EC0161E00E9407172C
:1032B000892B71F3CE010C960E947E05672B682B3B
:1032C000692B31F300E29E0146E351E0B701CE01E4
:1032D00080960E947318DECFEF92FF920F931F9398
:1032E000CF93DF93009749F48EEF9FEFDF91CF915B
:1032F0001F910F91FF90EF90089561157105A1F353
:103300004115510589F38A017B01EC0162E00E94BD
:103310000717892B49F344E050E0B801645F7F4F01
:10332000CE0104960E946305892BF1F2B801605F1B
:103330007F4F40E150E0CE0108960E946305892B43
:1033400099F20CE29E0143E551E0B701CE018C9663
:103350000E947318CBCF6F927F928F929F92AF9201
:10336000BF92CF92DF92EF92FF920F931F93CF9372
:10337000DF93CDB7DEB7C556D1090FB6F894DEBFDF
:103380000FBECDBF4C013B016A015901BA01C90111
:103390000E9441197C01892B71F5A501B601C80174
:1033A0000E946C197C01892B31F5CE0101960E9497
:1033B000600940E150E06EEE71E0CE0101960E949E
:1033C000E60940E350E0B501CE0101960E94E6090E
:1033D0004CE350E0B801CE0101960E94E609B40129
:1033E000CE0101960E94410A930140E250E0B601ED
:1033F000C4010E94850AC701CB59DF4F0FB6F8946C
:10340000DEBF0FBECDBFDF91CF911F910F91FF9017
:10341000EF90DF90CF90BF90AF909F908F907F9074
:103420006F9008959F92AF92BF92CF92DF92EF92EA
:10343000FF920F931F93CF93DF93CDB7DEB7C05C9E
:10344000D1090FB6F894DEBF0FBECDBF009709F4C7
:1034500004C1623008F001C158016901962E7C0157
:10346000BE016F597F4FCE018F579F4F0E94AB19FE
:103470008C01892B09F0BEC09E012F573F4F43E6B8
:1034800051E0BE016F597F4FCE0181960E940B180B
:103490009E012F573F4F46E751E0BE016F597F4FC6
:1034A000CE0101960E940B189E012F573F4F43E219
:1034B00051E0BE016F597F4FCE018F5B9F4F0E943D
:1034C0000B1880E1FE01EF5BFF4FDE01AF54BF4FF1
:1034D00001900D928A95E1F79E012F573F4F49E8E1
:1034E00051E0BE016F597F4FCE018F5B9F4F0E940D
:1034F0000B1880E1FE01EF5BFF4FDE01AF55BF4FC0
:1035000001900D928A95E1F781E7F70111928A9572
:10351000E9F780E2FE01911081C0B196D7010190D8
:103520000D928A95E1F780E2FE013196D7019096DF
:1035300001900D928A95E1F780E1FE01EF54FF4F73
:10354000D701A05CBF4F01900D928A95E1F780E111
:10355000FE01EF55FF4FD701A05BBF4F01900D92C9
:103560008A95E1F7C50188960E947E05F701E05A29
:10357000FF4F6083718382839383C6010C960E9400
:103580007E05F701EC59FF4F60837183828393833B
:103590003C9681E0808360E270E0CE018F579F4FC0
:1035A0000E94590560E270E0CE018F599F4F0E9442
:1035B000590560E270E0CE018F5B9F4F0E94590574
:1035C00060E270E0CE0181960E94590560E270E0F1
:1035D000CE0101960E94590560E170E0CE018F5442
:1035E0009F4F0E94590560E170E0CE018F559F4FBB
:1035F0000E945905C801C054DF4F0FB6F894DEBFD2
:103600000FBECDBFDF91CF911F910F91FF90EF9033
:10361000DF90CF90BF90AF909F9008953196D701E3
:1036200001900D928A95E1F780E2FE01B196D701F3
:10363000909601900D928A95E1F780E1FE01EF5599
:10364000FF4FD701A05CBF4F01900D928A95E1F723
:1036500080E1FE01EF54FF4F7ECF0FEF1FEFCACF87
:103660008F929F92AF92BF92CF92DF92EF92FF9292
:103670000F931F93CF93DF93CDB7DEB7C85AD1090D
:103680000FB6F894DEBF0FBECDBFA901009709F4B5
:103690009CC02DEF260F223008F097C057019801EB
:1036A000F62E6C018501BE0167597F4FCE01875709
:1036B0009F4F0E94AB194C01892B09F071C083E028
:1036C00042EB51E0F81202C04CE951E09E0127574D
:1036D0003F4FBE0167597F4FCE01875B9F4F0E94CE
:1036E0000B188EE4F601808381E5818381E082837B
:1036F000F382F501B89684E0D601149601900D92FC
:103700008A95E1F788E0F601DE01119601900D92AD
:103710008A95E1F780E2FE01E757FF4FDE01199637
:1037200001900D928A95E1F7F3E04BED51E0FF1225
:1037300002C048EC51E008E29E012F5F3F4FBE01FE
:10374000675B7F4FCE0189960E944E17D60118966F
:1037500080E1FE01B99601900D928A95E1F760E251
:1037600070E0CE0187579F4F0E94590560E270E0DC
:10377000CE0187599F4F0E94590560E270E0CE014B
:10378000875B9F4F0E94590568E270E0CE01019669
:103790000E94590560E270E0CE0189960E945905A9
:1037A000C401C855DF4F0FB6F894DEBF0FBECDBFC2
:1037B000DF91CF911F910F91FF90EF90DF90CF900D
:1037C000BF90AF909F908F90089588248A94982CF2
:1037D000E7CF8F929F92AF92BF92CF92DF92EF92FC
:1037E000FF920F931F93CF93DF93CDB7DEB7689708
:1037F0000FB6F894DEBF0FBECDBF0097B1F40EEF49
:103800001FEFC80168960FB6F894DEBF0FBECDBF9C
:10381000DF91CF911F910F91FF90EF90DF90CF90AC
:10382000BF90AF909F908F9008954901A42EB62E1F
:103830006C010E940717892B11F344E050E0B70197
:10384000685D7F4FC60104960E946305892BB9F21B
:1038500094014A2D6B2DCE0101960E94301B8C01E4
:10386000892B69F440E150E0BE01675F7F4FC601DC
:1038700008960E946305892B11F40DEF1FEF68E194
:1038800070E0CE0101960E945905BBCF3F924F9246
:103890005F926F927F928F929F92AF92BF92CF92E0
:1038A000DF92EF92FF920F931F93CF93DF93CDB7E9
:1038B000DEB7C254D1090FB6F894DEBF0FBECDBF3C
:1038C000009759F02115310541F00115110529F036
:1038D0006115710529F4442329F08FEF9FEF9DC0F6
:1038E0004931D8F7FC01E059FF4F5081552309F4C5
:1038F000ADC02C0158E6450E511CF201808091802C
:10390000A280B3808B208A208920809409F49EC0F5
:1039100023961FAF0EAF23974901342E6B013C0154
:103920008EE4F901808381E5818381E0828385E0F3
:103930008383F301E05AFF4F40815181628173819B
:10394000C90104960E947805F2014081518162818B
:103950007381C40108960E947805F4013486F2014F
:1039600040815181628173818E010F5F1F4F9E01E3
:103970002F5C3F4FC3010E94B917F20120813181B2
:1039800042815381B301605C7F4FCE0181960E94DA
:103990001B17A32CB12CB501635F7F4F680D791DF8
:1039A0008DE0E82EF12C84019E012F5D3F4FAE018A
:1039B0004F5C5F4FC4010D960E94501180E2FE01E2
:1039C0003196D30101900D928A95E1F7F201808141
:1039D0009181A281B3810196A11DB11D8083918344
:1039E000A283B3834DE1430D2396EEADFFAD239744
:1039F000408360E170E0CE01C1960E94590560E20B
:103A000070E0CE0101960E94590560E170E0CE01A0
:103A100081960E94590590E080E0CE5BDF4F0FB6A3
:103A2000F894DEBF0FBECDBFDF91CF911F910F91F4
:103A3000FF90EF90DF90CF90BF90AF909F908F90CE
:103A40007F906F905F904F903F9008958BEF9FEF26
:103A5000E4CF2F923F924F925F926F927F928F921C
:103A60009F92AF92BF92CF92DF92EF92FF920F930D
:103A70001F93CF93DF93CDB7DEB7C754D1090FB6ED
:103A8000F894DEBF0FBECDBF009709F4E8C0611502
:103A9000710509F4E4C02115310509F4E0C00115F0
:103AA000110509F4DCC04D3108F4D9C026961FAFCA
:103AB0000EAF269728963FAF2EAF2897142F4B01B5
:103AC0007C0165E0C4010E940717892B09F4C7C077
:103AD000F401F4852296FFAF2297F931E8F00EEF5A
:103AE0001FEFC801C95BDF4F0FB6F894DEBF0FBEF2
:103AF000CDBFDF91CF911F910F91FF90EF90DF909D
:103B0000CF90BF90AF909F908F907F906F905F907D
:103B10004F903F902F90089522968FAD2297C82EF8
:103B2000D12CC6014D9618171906C9F6C401049682
:103B30000E947E05F701E05AFF4F0081118122812A
:103B40003381601771078207930749F6C40108960D
:103B50000E947E052B013C01F701E059FF4F808157
:103B6000882309F47FC017019CE6290E311CF1015E
:103B700080819181A281B38184159505A605B70541
:103B800009F070C0C701809624969FAF8EAF24972E
:103B90008E010F5F1F4F9E012F5C3F4FB301A201AB
:103BA0000E94B917B701605B7F4FA3019201CE015C
:103BB00081960E941B1756019DE0A90EB11CA80C0E
:103BC000B91C7401EDE0EE0EF11C0DE010E0940163
:103BD000AE014F5D5F4FBE016F5C7F4F28968EAD8B
:103BE0009FAD28970E9436138C01892B91F580E2B6
:103BF000FE0131962496AEADBFAD249701900D9293
:103C00008A95E1F7F10180819181A281B3810196CA
:103C1000A11DB11D80839183A283B38322968FADB2
:103C200022972696EEADFFAD2697808360E170E087
:103C3000CE01C1960E94590560E270E0CE01019666
:103C40000E94590560E170E0CE0181960E945905FD
:103C500048CF2696EEADFFAD26971082E7CF0FEF47
:103C60001FEF3FCF0CEF1FEF3CCFFC016081718154
:103C7000828193810E94622208951F93CF93DF93E4
:103C8000FC01162F372FEA01622F70E080E091E0EF
:103C90000E944E22C617D70720F0C61BD70BE12F74
:103CA000F32F38E0832F622F0E944222682F70E0AA
:103CB000CE010E944E22E60FF71F408150E0321BDA
:103CC000289F3019112402C0559547953A95E2F77F
:103CD00081E090E001C0880F2A95EAF781508423A3
:103CE000DF91CF911F910895AF92BF92CF92DF9253
:103CF000EF92FF920F931F93CF93DF93CDB7DEB771
:103D0000C655D1090FB6F894DEBF0FBECDBF5C011A
:103D1000FB0166E570E0C114D10411F466E370E0C4
:103D200080E1DE01119601900D928A95E1F7598BA1
:103D30004A8B3B8B2C8B1D8B0E8B90E2F701DE01A7
:103D4000579601900D929A95E1F7C114D10441F074
:103D500090E2F601DE01D79601900D929A95E1F777
:103D6000A501CE0101960E94520ACA5ADF4F0FB632
:103D7000F894DEBF0FBECDBFDF91CF911F910F91A1
:103D8000FF90EF90DF90CF90BF90AF900895EF92AB
:103D9000FF920F931F93CF93DF93FC01CB01BA01E6
:103DA0007901E801A9010995009751F0209731F0B8
:103DB000288139812E0D3F1D3983288381E090E0D1
:103DC000DF91CF911F910F91FF90EF9008952F9267
:103DD0003F924F925F926F927F928F929F92AF929B
:103DE000BF92CF92DF92EF92FF920F931F93CF93E8
:103DF000DF93CDB7DEB7C757D1400FB6F894DEBF1B
:103E00000FBECDBFC114D10419F0D6011D921C9272
:103E1000009709F435C36115710521F44115510569
:103E200009F02EC30115110509F42AC3C059DE4F4C
:103E3000D982C882C057D140C259DE4FF982E88288
:103E4000CE56D140C459DE4F19830883CC56D14099
:103E500089016A017B01CE58DE4F99838883C2575E
:103E6000D14004960E94351E4B015C01B3E08B16D5
:103E70009104A104B10409F44CC0E4E08E1691044D
:103E8000A104B10409F0FCC28CE095E0CA58DE4FF1
:103E90001882C657D14022E230E0CC58DE4F398339
:103EA0002883C457D14038E0C559DE4F3883CB56FC
:103EB000D1408017910709F0E1C2CE58DE4F8881CA
:103EC0009981C257D1400E94351E65307105810528
:103ED000910509F0D5C2C059DE4F08811981C0573C
:103EE000D14024E030E0AE014F595E4FC259DE4F61
:103EF00068817981CE56D140C459DE4F888199813D
:103F0000CC56D1400E94C71E892BD1F484E090E0AA
:103F100058C28CE299E0A4E0CA58DE4FA883C65785
:103F2000D140E3E4F0E0CC58DE4FF983E883C45796
:103F3000D140F4E0C559DE4FF883CB56D140B9CF1C
:103F4000C059DE4F08811981C057D14024E030E0CC
:103F5000AE01435A5E4FC259DE4F68817981CE5619
:103F6000D140C459DE4F88819981CC56D1400E94FE
:103F7000C71E892B59F2C059DE4F08811981C057DD
:103F8000D14020E230E0AE01435C5E4FC259DE4FCB
:103F900068817981CE56D140C459DE4F888199819C
:103FA000CC56D1400E94C71E892B09F4AFCFCE0159
:103FB0008F599E4F0E94351E2B013C0120E2421674
:103FC00051046104710410F081E0A1CFCE01835A45
:103FD0009E4F0E94351E681579058A059B05A1F73D
:103FE000C559DE4F3881CB56D140032F10E081E018
:103FF00090E001C0880F3A95EAF799249A94980EB8
:10400000CE58DE4F28803980C257D14088E0280E34
:10401000311CCE0101960E94600940E150E0B101DF
:10402000CE0101960E94E60944E050E0BE016F59BE
:104030007E4FCE0101960E94E60942E050E061E029
:1040400072E0CE0101960E94E60940E250E0BE0116
:10405000635C7E4FCE0101960E94E609A601B7017E
:10406000CE0101960E94E6096E0193EEC91A9EEFF9
:10407000D90AB601CE0101960E94410A80E091E082
:10408000B8010E944E225B01F12CE12C10E000E00F
:10409000C958DE4FC882C757D1408D2CC92CD12CAE
:1040A000C559DE4F2881CB56D140A701BE016B59BF
:1040B0007E4FC958DE4F8881C757D140982D0E9446
:1040C0003D1ED601A81BB1090A0F1B1FBFEFEB1A3B
:1040D000FB0AAE14BF0421F7CA58DE4F0880C6574A
:1040E000D14002C0000F111F0A94E2F7CB59DE4FF6
:1040F0001883C556D140CA59DE4F0883C656D140F1
:10410000CE0101960E94600940E150E0B101CE016C
:1041100001960E94E6095E01EFE9AE1AEEEFBE0AD3
:1041200044E050E0B501CE0101960E94E60942E06C
:1041300050E06FEF71E0CE0101960E94E609F12C8C
:10414000E12C26E630E02C0F3D1F295E3F4F690130
:10415000CE010196C759DE4F99838883C956D14055
:10416000C059DE4F08811981C057D14020E230E0AC
:10417000AE0143505F4FC259DE4F68817981CE5600
:10418000D140C459DE4F88819981CC56D1400E94DC
:10419000C71E892B09F4BACEC559DE4F2881CB56EC
:1041A000D140A701BE016B597E4FCE01835E9E4F69
:1041B0000E943D1E182F191508F41DC140E250E061
:1041C000BE0163507F4FCE0101960E94E609FFEFCA
:1041D000EF1AFF0ACC58DE4F28813981C457D140ED
:1041E0002E153F0509F0BCCFCE0183549F4FC9590E
:1041F000DE4F99838883C756D140BC018C5B9109FF
:104200000E94410AC059DE4F08811981C057D14030
:1042100024E030E0AE01435A5E4FC259DE4F688160
:104220007981CE56D140C459DE4F88819981CC56D0
:10423000D1400E94C71E892B09F4C6CECE01835AF5
:104240009E4F0E94351E653071058105910509F06C
:10425000BBCE90E2490E511C611C711CD12CC12CAB
:10426000DE01A354BF4F7D0102E812E8A3019201D1
:10427000B101CE0183509F4F0E94741EB5E0C55915
:10428000DE4FB883CB56D1404E01EDE98E0E911C26
:104290009E012A593F4F5901C059DE4F08811981AB
:1042A000C057D14020E230E0A401C259DE4F6881FE
:1042B0007981CE56D140C459DE4F88819981CC5640
:1042C000D1400E94C71E892B09F420CED301C20120
:1042D00081709927AA27BB277694679457944794AF
:1042E000892B8A2B8B2B09F4C3C0CE0183509F4F9F
:1042F0006C01740103E813E8A3019201B101C50147
:104300000E94741E80E2F501DE01A350BF4F0190B0
:104310000D928A95E1F7C559DE4FB881CB56D14051
:10432000B150C559DE4FB883CB56D140B111B4CF8F
:1043300085E6C759DE4FE881F981C956D14011920F
:104340008A95E9F7FE01E35CFE4F80E2DF01282F4A
:104350001D922A95E9F7B097DF01282F1D922A9523
:10436000E9F7E054F109DF01282F1D922A95E9F7BA
:10437000C959DE4FA881B981C756D140E82F1D9297
:10438000EA95E9F7D401E82F1D92EA95E9F7D501FE
:104390001D928A95E9F7CE58DE4F68817981C25720
:1043A000D140685E7F4F40E250E0CE0183509F4F86
:1043B0000E94D10A31E020E0892B09F030E0832F00
:1043C000922FC958DE4F0FB6F894DEBF0FBECDBF97
:1043D000DF91CF911F910F91FF90EF90DF90CF90E1
:1043E000BF90AF909F908F907F906F905F904F9015
:1043F0003F902F90089580E1F101DE01AA59BF4F4F
:1044000001900D928A95E1F7F50180819181A28159
:10441000B381EA968CAF9DAFAEAFBFAFEA97EB9694
:104420001FAEEB97EC96EFAEEC97ED961FAFED97C6
:1044300080E2FE01E350FF4FD60101900D928A9574
:10444000E1F7AE0143525F4F67E370E0CE018A5956
:104450009F4F0E94520A80E2FE01E352FF4FDE01AD
:10446000A350BF4F01900D928A95E1F71F5FA3CE35
:104470006401DE01A350BF4F7D013CCF82E047CDF8
:1044800083E045CD991B79E004C0991F961708F089
:10449000961B881F7A95C9F780950895AA1BBB1BA8
:1044A00051E107C0AA1FBB1FA617B70710F0A61B34
:1044B000B70B881F991F5A95A9F780959095BC0155
:1044C000CD010895692796276927782787277827B8
:1044D0000895002E083090F0982F872F762F652FA3
:1044E000542F432F322F22270850F4CF220F331F8F
:1044F000441F551F661F771F881F991F0A95B2F723
:10450000002D089597FD1094002E083098F0085063
:10451000232F342F452F562F672F782F892F912D3A
:10452000F4CF159497958795779567955795479507
:10453000379527950A95AAF71124002D08950F9312
:104540000830A0F00850092E982F872F762F652F5E
:10455000542F432F322F202DF3CF220F331F441F10
:10456000551F661F771F881F991F211D0A95AAF7DF
:104570000F910895FB01DC0102C001900D924150A2
:104580005040D8F70895DC0101C06D934150504070
:10459000E0F70895DC01CB01FC01F999FECF06C0DC
:1045A000F2BDE1BDF89A319600B40D9241505040F1
:1045B000B8F70895DC01A40FB51F4150504048F0F2
:1045C000CB01840F951F2E910E94EB224150504049
:1045D000D0F70895262FF999FECF92BD81BDF89AA4
:1045E000019700B4021639F01FBA20BD0FB6F89437
:1045F000FA9AF99A0FBE08950196272F0E94EB228E
:084600000C94EA22F894FFCFAC
:104608004E50512F31206D657373616765206B655E
:1046180079004E50512F31206E657874206368619F
:10462800696E004E50512F3120636C69656E74209D
:104638006E6F6E6365004E50512F312068656C6C4B
:104648006F004E50512F312073657373696F6E2060
:104658006964004E50512F31206368616C6C656E3F
:104668006765004E50512F3120636C69656E742068
:10467800636861696E004E50512F31207365727600
:10468800657220636861696E004E50512F31207346
:104698006572766572206E6F6E6365004E50512F9D
:1046A8003120636C69656E742066696E697368652C
:1046B80064004E50512F3120736572766572206602
:1046C800696E6973686564004E50512F3120636CC0
:1046D80069656E742070726F6F66004E50512F318D
:1046E800207365727665722070726F6F66004E5027
:1046F800512F31207472616E736372697074008017
:04470800808181002B
:00000001FF
